:03000000020A8071
:0C0A8000787FE4F6D8FD758111020A6F42
:100A5100D3EF9400EE940040147D6E7C00ED1D7088
:0D0A6100011CED4C70F7EF1F70E61E80E3E6
:010A6E002265
:08096D008E088F098A0A8B0B2A
:10097500AE04AF05E41208A57433FBFAF9783F120B
:1009850008031208DE8E0C8F0DE4F50EF50FF51039
:10099500F511F50EF50FC3E50F950DE50E950C4018
:1009A50003020A48E4FAFB8A108B11E50945087031
:1009B5000AC374079BF511E49AF510E510705CE520
:1009C50011B4080050559009D2F82828730209EA95
:1009D5000209EE0209F20209F80209FE020A0802FA
:1009E5000A12020A16D2908034D2908002C290D2A6
:1009F50091802CC290D2918004C290C291D292C2B1
:100A0500938020C290C291D292D2938016C29080D8
:100A150002D290C291C292D2938008C290C291C272
:100A250092C293AF0BAE0A120A510BBB00010AEB3F
:100A350064084A60030209AC050FE50F7002050E54
:0B0A450002099BC290C291C292C293B2
:010A50002283
:100A6F007B017A007D687C017F017E0012096D8019
:010A7F00FE78
:10080000020954EC5D046005E85904700302094ACA
:10081000120915580460F6EC4860F2EC7004FDFE15
:10082000FF22C860DB2481C85009C39860025006CB
:100830000209519850CAF582E9294B4A7005AB82EA
:1008400002094075F0007C1A7880C3EF9BEE9AEDA8
:1008500099400DC3EF9BFFEE9AFEED99FDE842F043
:10086000DC23ACF0D0E0FFD0E0FED0E0FDAB822096
:10087000E7101BEB60BAEC2CFCEF33FFEE33FEED20
:1008800033FD02092CE803F830E705C0F075F000ED
:10089000EF2FFFEE33FEED33FD40B830E7C280AA04
:1008A00075F020800E75F010800575F0087D007ED3
:1008B000007F003392D530D50312095FEC3340102E
:1008C000EF33FFEE33FEED33FDEC33FCD5F0ED22DC
:0E08D000E5F0247EA2D513CC92E7CDCEFF2218
:1008DE00EDD2E7CD33EC3392D524814006E4FFFE12
:1008EE00FDFC22FCE4CFCECDCC24E0501174FF8071
:1008FE00EDC3CC13CCCD13CDCE13CECF13CF04700E
:07090E00F030D5DE02095FA5
:10091500E9D2E7C933E833F892D5EDD2E7CD33EC28
:0709250033FC5002B2D522A1
:10092C00EC30E7100FBF000C0EBE00080DBD00042C
:10093C000BEB6014A2D5EB13FCED92E7FD2274FFD8
:10094C00FCFDFEFF22E480F8A2D574FF13FC7D8031
:03095C00E480EF45
:0E095F00C3E49FFFE49EFEE49DFDE49CFC22A9
:00000001FF
